:020000020000FC
:0200000006C038
:10000C00C3C10FE50DBF04E00EBF00E808B9FFEF58
:10001C00EFEF3197F1F7442753E00027E9E6F0E0E2
:10002C0028E001932A95E9F759C001B30E6101BB91
:10003C00889A18D08F9A8D9A9598A1D000E39798AA
:10004C006FD0A0D000E397986BD0A2D000E2979825
:10005C0067D0EAE6F0E02591979846D008950528F8
:10006C0001060C80909AF7E2E0E1E0936200F093D5
:10007C0063000895A498A398A598772704E10093AA
:10008C0064000895A898A09A0895C298C398BA9A43
:10009C00BB9A01D00895F3E0E8EE02C0FBE0E8EB78
:1000AC00E0936700F093680008950FE00BBD0FE933
:1000BC000ABD00E00FBD09E00EBD00E109BF0895C7
:1000CC00B998C19A01D00895F0E0EAE002C0FBE0D3
:1000DC00E8EBE0936000F09361000895A6DFD2DFB7
:1000EC00D4DFE3DFEDDF1BC405910BD02A95E1F7DC
:1000FC000895059106D02A95E1F700E8979801D06C
:10010C0008950F931DD012B3117E102B12BB3DD04E
:10011C00959A000000000000000095980F91029540
:10012C000FD012B3117E102B12BB32D0959A000057
:10013C00000000000000959812B3117E12BB0895C8
:10014C001F93112704FD106105FD186006FD146056
:10015C0007FD1260012F1F9108959798112361F0EC
:10016C00123029F0133031F010E4010F05C014E106
:10017C00010F02C014E5010F0068C3DF0895BEE350
:10018C00A0E808C0B3E1A8E805C0B3E0A8EE02C03F
:10019C00B0E0A0EA1197F1F70895030C101E1111AD
:1001AC000E0000001C121C121C0000060A0A0A1F7A
:1001BC0011000E11010601110E0000001E010601B6
:1001CC001E00000011131519110000001214181450
:1001DC001200000011111F1111001F11111111112A
:1001EC00110000001F111111110000001F04040464
:1001FC0004001111110A040810001111110F010152
:10020C0001000000151515151F00000010101C1220
:10021C001C004F7D9C9B12C09B9B37C09D9B5CC060
:10022C0073FF06C070FD1BD071FD40D072FD65D010
:10023C0077277093660070936500089513DF70FF45
:10024C0009C074FF08957F7EF0E0E8EC69D073FD7F
:10025C000DC014C07960F3E0E8EE62D0089550FF51
:10026C0002C0D0D3089553FDFCD30895777F50FF7F
:10027C0002C0C8D3089553FDF4D3089550FF02C0B3
:10028C00C1D3089553FDEDD30895ECDE71FF09C081
:10029C0074FF08957F7EF0E0E8EC42D073FD0DC052
:1002AC0014C07A60F3E0E8EE3BD0089550FF02C032
:1002BC00B0D3089553FDE2D30895777F50FF02C069
:1002CC00A8D3089553FDDAD3089550FF02C0A1D3EB
:1002DC00089553FDD3D30895C5DE72FF09C074FF92
:1002EC0008957F7EF0E0E8EC1BD073FD11C016C0C2
:1002FC007C60F3E0E8EE14D0089550FD07C051FD8A
:10030C008FD352FD98D353FDC6D308955E7F0895C5
:10031C00777F50FD089553FD99D3089500000895FB
:10032C00F0936600E09365000895A89A0AD0A89807
:10033C00089515E0A89A0AD0A89808D01A95D1F774
:10034C00089509E108D00A95E9F7089508E003D06B
:10035C000A95E9F70895B5E2A8E71197F1F7089522
:10036C00477FC29AC39806D0C298C39A03D0C2984A
:10037C00C39808950AE003D00A95E9F70895B7E207
:10038C00A0E11197F1F70895EF93FF93EFB7EF9377
:10039C00F0916300E0916200FF93FE2BFF9119F046
:1003AC00319709F44061E0936200F0936300E091AF
:1003BC006400EA9511F44062E4E1E0936400F0918A
:1003CC006600E0916500FF93FE2BFF9119F03197C9
:1003DC0009F47061E0936500F0936600F0916100A0
:1003EC00E0916000FF93FE2BFF9119F0319709F417
:1003FC004160E0936000F0936100F0916800E0913F
:10040C006700319719F44860F3E0E8EEE093670079
:10041C00F0936800EF91EFBFFF91EF911895F8946E
:10042C006894B99AC1980EE64ED00A95E9F7B99836
:10043C0004E149D00A95E9F7B199E89478940895C4
:10044C00F8940F93B99AC19801E03DD00A95E9F759
:10045C00B998C19A02E037D00A95E9F78894B19916
:10046C0008940AE030D00A95E9F70F917894089532
:10047C001F93002718E0E4DF07951A95E1F7B99A66
:10048C00C19A1F910895F8940F93B99AC19802E0FC
:10049C001AD00A95E9F708F4C19A0CE014D00A9521
:1004AC00E9F7C19A02E00FD00A95E9F70F91789419
:1004BC0008951F9318E00695E6DF1A95E1F7B99AAF
:1004CC00C19A1F9108951F9312E01A95F1F71F918D
:1004DC0008954E7FF9DDA3DF0BE4F5DF0A95E9F70C
:1004EC000EF0089503E3E5DFE9E6F0E028E0C0DF75
:1004FC0001932A95E1F7E3D1B5DDBFD0CCD10091C2
:10050C00700010917100011721F0C29AC39811DF8D
:10051C0003C0C298C39A09DF467FD9DDBFDD4260B4
:10052C0008954E7FD1DD7BDF0BE4CDDF0A95E9F733
:10053C000EF0089513D042FF0CC06FD042FF09C0DB
:10054C0091DDC29AC398F5DE00C0467FC0DDA6DD02
:10055C00089588DDC298C39AE8DEF7CFE9E6F0E0AB
:10056C005EDF0BE4B0DF0A95E9F70EF0ADCD01EDDF
:10057C00A0DF88941CD053DF0BE4A5DF0A95E9F7C4
:10058C000EF0A2CD05ED95DF18E0019100953BD062
:10059C001A95D9F744DF0BE496DF0A95E9F70EF0CC
:1005AC0093CD01ED86DF089402D0A3D108956BDFC3
:1005BC000F9308EC88DF0A95E9F708EC84DF0A95BD
:1005CC00E9F708EC80DF0A95E9F708EC7CDF0A957F
:1005DC00E9F708EC78DF0A95E9F708EC74DF0A957F
:1005EC00E9F708EC70DF0A95E9F708EC6CDF0A957F
:1005FC00E9F708EC68DF0A95E9F708EC64DF0A957F
:10060C00E9F70F9108951F9318E00695D0DF1A951E
:10061C00E1F7B99AC19A1F910895E9E6F0E0112724
:10062C00FEDE0BE450DF0A95E9F70EF04DCD0CE33E
:10063C0040DF012F3EDF00273CDF01913ADF18DF5E
:10064C0006D016DF1395183059F753D10895C19A77
:10065C00B99A08E738DF0A95E9F7C19801E033DF6A
:10066C000A95E9F7C19A1F9319E20FEF2CDF0A954F
:10067C00E9F71A95D1F71F91089511E000E06DDDAF
:10068C00E1E7F0E028E0029103D02A95E1F7089524
:10069C000F9302950F7004D00F910F7001D0089535
:1006AC00005D0A3308F0095F979A2BDD0895E6E0A8
:1006BC00F7E02591979A18DD00E4979822DDE6E0A3
:1006CC00F2E028E0979A15DD08E497981ADDE6EF3A
:1006DC00F1E028E0979A0DDD00E5979812DDEEED3C
:1006EC00F1E028E0979A05DD08E597980ADDEEEC35
:1006FC00F1E028E0979AFDDC0895060001650203FD
:10070C006500EAE5F7E02591979AEEDC00E497980E
:10071C00F8DCEEEBF1E028E0979AEBDC08E4979834
:10072C00F0DCEEEEF1E028E0979AE3DC00E5979838
:10073C00E8DCEEECF1E028E0979ADBDC08E5979832
:10074C00E0DCE6E1F2E028E0979AD3DC08950600BD
:10075C00610102630300EEEAF7E02591979AC4DC8D
:10076C0000E69798CEDCEEE0F2E028E0979AC1DC48
:10077C0008E69798C6DCE6EAF1E028E0979AB9DC3F
:10078C0000E79798BEDCE6EDF1E028E0979AB1DC43
:10079C0008E79798B6DCE6ECF1E028E0979AA9DC3C
:1007AC0008950D4F040205066120076101026302E2
:1007BC00E8EEF7E02591979A97DC00E69798A1DC94
:1007CC00E6EEF1E028E0979A94DC08E6979899DC3D
:1007DC00E6EFF1E028E0979A8CDC08950504796344
:1007EC00056FEAE5F8E02591979A7EDC00E497988E
:1007FC0088DCE6EBF1E028E0979A7BDC08E497983C
:10080C0080DCE6EDF1E028E0979A73DC00E5979840
:10081C0078DCE6EFF1E028E0979A6BDC08E5979836
:10082C0070DCEEECF1E028E0979A63DC00E6979838
:10083C0068DCEEEAF1E028E0979A5BDC08E6979832
:10084C0060DCEEEDF1E028E0979A53DC08950E5051
:10085C00650861010203706F04610503650010E017
:10086C0000E07BDC0CE3979A4CDC10E00FE075DCCD
:10087C000EE3979A46DC0895E0E9F8E02591979A03
:10088C0033DC089510202020202020202020202040
:10089C0020202020200010E008E05FDCE0ECF8E0F5
:1008AC002591979A21DC10E00DE057DC0091710046
:1008BC00EFDE089508284352433A20202900C9E668
:1008CC00D0E0E1E7F0E027E0099101932A95E1F708
:1008DC0018E3E8E7F0E027E088940291079500839D
:1008EC002A95D9F718F42CE8022700831A9589F772
:1008FC0008954B7F94DD0BE4E6DD0A95E9F70EF0E5
:10090C00089503E3D6DDE9E6F0E028E0B1DD1191CE
:10091C00011719F42A95D1F7089544600895789435
:10092C007FD097980CE0EDDBC29AC39844FD60D061
:10093C0045FD6FDC50FF5FC0F9CF52E04E7FC4DB4A
:10094C0010E000E00ADC98DF10E000E006DCAFDE2F
:10095C0044FD4ED045FD5DDC43FD02DD40FDB9DDBF
:10096C0050FDDFCFF5CF54E04E7FAEDB10E000E062
:10097C00F4DB82DF10E000E0F0DBC3DE41FD12C0EF
:10098C0011E000E0EADB78DF11E000E0E6DB10DFED
:10099C004E7F9DDB40FFFECF11E000E0DEDB6CDF25
:1009AC004AD0BFCF44FD24D045FD33DC43FDD8DC19
:1009BC0040FDB7DD50FDB5CFF5CF5F7E6627C29AFF
:1009CC00C39810E000E0C9DB57DF10E000E0C5DBA6
:1009DC0008DF53DE11E00FE0C0DB979802E00C60FB
:1009EC0090DB44FD05D045FD14DC50FD9ACFF9CFCA
:1009FC004F7E9098089551FDA0CF52FDB4CF53FD7A
:100A0C00DCCF089551FD22C052FD0AC053FD13C026
:100A1C00089551FD10C052FD19C053FD01C0089539
:100A2C0053E010E000E099DB27DF10E005E095DBF8
:100A3C003EDE15DF089555E010E000E08EDB1CDF94
:100A4C0010E005E08ADB5DDE0ADF089559E010E076
:100A5C0000E083DB11DF10E001E07FDBC2DEFFDEB4
:100A6C00089554FF06C02ED0039504FD002731D005
:100A7C000895639564FD662742D0089554FF06C01F
:100A8C0021D00A9507FD0FE024D008956A9567FDE3
:100A9C006FE035D0089554FF06C05F7E979802E052
:100AAC000C602FDB08955061979801E00C6029DBF6
:100ABC000895062F06951127E9E6F0E0E00FF11FE7
:100ACC0000810895F6DF60FD0295102F107F0F70E6
:100ADC000895102B60FD12951083E2DDF0DE4D7F42
:100AEC00002309F042606E3040F411E000E035DB89
:100AFC000091710000937000CBDD01D008950FE0E0
:080B0C00061B11E02ADB08952D
:00000001FF
